:020000040000FA
:100000000C9462000C947F000C947F000C947F0091
:100010000C947F000C947F000C947F000C9464017E
:100020000C947F000C947F000C947F000C947F0054
:100030000C947F000C947F000C947F000C947F0044
:100040000C94E6010C947F000C947F000C947F00CC
:100050000C947F000C947F000C947F000C947F0024
:100060000C947F000C947F00000000002400270007
:100070002A000000000023002600290000000008DC
:10008000000201000003040700000000000000005F
:10009000010204081020408001020408102001021F
:1000A0000408102000000000250028002B00040494
:1000B0000404040404040202020202020303030310
:1000C0000303020011241FBECFEFD8E0DEBFCDBF77
:1000D00011E0A0E0B1E0EEE7F7E002C005900D927C
:1000E000A230B107D9F721E0A2E0B1E001C01D9232
:1000F000AE31B207E1F70E9430020C94BD030C94BC
:100100000000833081F028F4813099F08230A9F02A
:1001100008958730A9F08830C9F08430B1F4809117
:1001200080008F7D03C0809180008F778093800056
:10013000089584B58F7784BD089584B58F7DFBCFF6
:100140008091B0008F778093B00008958091B000C7
:100150008F7DF9CF1F93CF93DF93282F30E0F901E4
:10016000E458FF4F8491F901E057FF4FD491F90112
:10017000E255FF4FC491CC23A9F0162F81110E94A4
:100180008100EC2FF0E0EE0FFF1FEC55FF4FA59123
:10019000B4918FB7F894EC91111108C0D095DE237B
:1001A000DC938FBFDF91CF911F910895DE2BF8CFA5
:1001B000CF93DF9390E0FC01E057FF4F24918255ED
:1001C0009F4FFC0184918823D1F090E0880F991F04
:1001D000FC01E859FF4FA591B491FC01EC55FF4F8C
:1001E000C591D49161110EC09FB7F8948C91E22F04
:1001F000E0958E238C932881E223E8839FBFDF91D3
:10020000CF9108958FB7F894EC91E22BEC938FBFC8
:10021000F6CF3FB7F8948091070190910801A09123
:100220000901B0910A0126B5A89B05C02F3F19F01E
:100230000196A11DB11D3FBFBA2FA92F982F882766
:10024000BC01CD01620F711D811D911D42E0660F41
:10025000771F881F991F4A95D1F708958F929F9213
:10026000AF92BF92CF92DF92EF92FF920E9409016C
:100270004B015C0184EFC82EDD24D394E12CF12CDA
:100280000E940901681979098A099B09683E73402F
:1002900081059105A8F321E0C21AD108E108F1080F
:1002A00088EE880E83E0981EA11CB11CC114D104F5
:1002B000E104F10429F7FF90EF90DF90CF90BF9019
:1002C000AF909F908F9008951F920F920FB60F924C
:1002D00011242F933F934F935F936F937F938F934B
:1002E0009F93AF93BF93EF93FF93809110019091F1
:1002F0001101A0911201B0911301892B8A2B8B2B34
:10030000D1F190910B01E0910C01F0910D018081F0
:10031000892780838091100190911101A091120191
:10032000B0911301181619061A061B069CF4809149
:10033000100190911101A0911201B0911301019748
:10034000A109B1098093100190931101A0931201AA
:10035000B0931301FF91EF91BF91AF919F918F9156
:100360007F916F915F914F913F912F910F900FBEB1
:100370000F901F90189580910001E2ECF0E0E4915D
:100380009FEF90930001E13051F030F0E23069F0DE
:1003900060E00E94AA00DECF10926E00F9CF90912B
:1003A0006F009D7F90936F00F3CF909170009D7FC1
:1003B0009093700091E09093B0009091B100987F7D
:1003C00094609093B1001092B300E2CF1F920F920D
:1003D0000FB60F9211242F933F938F939F93AF9358
:1003E000BF938091030190910401A0910501B09108
:1003F00006013091020123E0230F2D3758F50196B5
:10040000A11DB11D2093020180930301909304016B
:10041000A0930501B0930601809107019091080116
:10042000A0910901B0910A010196A11DB11D80930F
:10043000070190930801A0930901B0930A01BF91AD
:10044000AF919F918F913F912F910F900FBE0F9081
:100450001F90189526E8230F0296A11DB11DD2CF3B
:10046000789484B5826084BD84B5816084BD85B58F
:10047000826085BD85B5816085BD80916E0081609B
:1004800080936E0010928100809181008260809341
:100490008100809181008160809381008091800043
:1004A0008160809380008091B10084608093B1006E
:1004B0008091B00081608093B00080917A00846068
:1004C00080937A0080917A00826080937A00809194
:1004D0007A00816080937A0080917A0080688093AE
:1004E0007A001092C10060E08DE00E94D80061E0C7
:1004F0008CE00E94D80061E08BE00E94D80061E0AF
:100500008AE00E94D80061E089E00E94D80064E09F
:10051000C62E67E4D62E72ECE72E70E0F72EE7EBDE
:100520006E2EE0E07E2E09E910E0F8EB8F2E992484
:100530009394A12CB12C49E8242E40E0342E5DE99F
:10054000452E50E0552EF1018491F201C491EBEB60
:10055000F0E0D491DD23C9F081110E948100ED2FDC
:10056000F0E0EE0FFF1FEE58FF4FA591B4918C9174
:100570008C2359F061E08CE00E94AA0080E090E0BA
:10058000892B09F30E940000D6CF60E08CE00E9426
:10059000AA0061E08AE00E94AA0010921D01109258
:1005A0001C0180911C0190911D014E970CF0E2C03E
:1005B00061E08BE00E94AA0080910001893029F55A
:1005C000F701C491C7FDBCC061E089E00E94D8007A
:1005D000CC2309F488C0C23009F099C08091B100E1
:1005E000887F85608093B1008DE88093B30080920E
:1005F000100190921101A0921201B092130180910A
:1006000070008260809370009BC08F3F09F098C09B
:1006100089E080930001F701C491CF3F09F490C0B5
:10062000C13019F150F0C23009F43CC0C7FD88C098
:1006300061E089E00E94D800CECF14BC15BC84B51F
:10064000826084BD85B5816085BDF3018491E82F0A
:10065000F0E0EE0FFF1FEC55FF4F85919491F801EC
:10066000849180930F01C0E0AFCF10928000109270
:100670008100809181008860809381008091810059
:10068000816080938100F3018491E82FF0E0EE0F08
:10069000FF1FEC55FF4F85919491F8018491809351
:1006A0000E0192CF1092B0001092B1008091B00074
:1006B00082608093B0008091B10081608093B1002E
:1006C000F3018491E82FF0E0EE0FFF1FEC55FF4F90
:1006D0008591949190930D0180930C01F801849180
:1006E00080930B0171CF85B5887F846085BD86E4DA
:1006F00087BD8092180190921901A0921A01B092C0
:100700001B0180916E00826080936E0019C0C13021
:1007100049F580918100887F816080938100D0922B
:100720008900C09288008092140190921501A092D5
:100730001601B092170180916F00826080936F0064
:100740000E942E0160E08BE00E94AA000E942E0110
:1007500080911C0190911D01019690931D01809341
:100760001C011FCFC23021F0C111EACF84E0C0CFFD
:1007700084E03BCF60E08AE0FFCEF894FFCFFF003B
:107E0000112484B714BE81FFF0D085E080938100F7
:107E100082E08093C00088E18093C10086E0809377
:107E2000C20080E18093C4008EE0C9D0259A86E02C
:107E300020E33CEF91E0309385002093840096BBD3
:107E4000B09BFECF1D9AA8958150A9F7CC24DD24C4
:107E500088248394B5E0AB2EA1E19A2EF3E0BF2EE7
:107E6000A2D0813461F49FD0082FAFD0023811F036
:107E7000013811F484E001C083E08DD089C08234E0
:107E800011F484E103C0853419F485E0A6D080C0E4
:107E9000853579F488D0E82EFF2485D0082F10E0AE
:107EA000102F00270E291F29000F111F8ED06801E7
:107EB0006FC0863521F484E090D080E0DECF843638
:107EC00009F040C070D06FD0082F6DD080E0C81688
:107ED00080E7D80618F4F601B7BEE895C0E0D1E017
:107EE00062D089930C17E1F7F0E0CF16F0E7DF06D8
:107EF00018F0F601B7BEE89568D007B600FCFDCFD4
:107F0000A601A0E0B1E02C9130E011968C91119780
:107F100090E0982F8827822B932B1296FA010C0160
:107F200087BEE89511244E5F5F4FF1E0A038BF0790
:107F300051F7F601A7BEE89507B600FCFDCF97BE46
:107F4000E89526C08437B1F42ED02DD0F82E2BD052
:107F50003CD0F601EF2C8F010F5F1F4F84911BD097
:107F6000EA94F801C1F70894C11CD11CFA94CF0C13
:107F7000D11C0EC0853739F428D08EE10CD085E9AC
:107F80000AD08FE07ACF813511F488E018D01DD067
:107F900080E101D065CF982F8091C00085FFFCCF94
:107FA0009093C60008958091C00087FFFCCF809118
:107FB000C00084FD01C0A8958091C6000895E0E648
:107FC000F0E098E1908380830895EDDF803219F02E
:107FD00088E0F5DFFFCF84E1DECF1F93182FE3DFCA
:107FE0001150E9F7F2DF1F91089580E0E8DFEE27F6
:047FF000FF270994CA
:027FFE00040479
:00000001FF
